{
  "_format": "hh-sol-artifact-1",
  "contractName": "VestingFactory",
  "sourceName": "contracts/VestingFactory.sol",
  "abi": [
    {
      "inputs": [],
      "stateMutability": "nonpayable",
      "type": "constructor"
    },
    {
      "inputs": [
        {
          "internalType": "address",
          "name": "",
          "type": "address"
        }
      ],
      "name": "ADDRESS_NOT_WHITELISTED",
      "type": "error"
    },
    {
      "inputs": [
        {
          "internalType": "uint256",
          "name": "",
          "type": "uint256"
        }
      ],
      "name": "AMOUNT_MUST_BE_ABOVE_ZERO",
      "type": "error"
    },
    {
      "inputs": [],
      "name": "APPROVAL_FAILED",
      "type": "error"
    },
    {
      "inputs": [],
      "name": "INCONSISTENT_DATA",
      "type": "error"
    },
    {
      "inputs": [
        {
          "internalType": "uint256",
          "name": "",
          "type": "uint256"
        }
      ],
      "name": "INSUFFICIENT_TOKEN_BALANCE",
      "type": "error"
    },
    {
      "inputs": [
        {
          "internalType": "string",
          "name": "",
          "type": "string"
        }
      ],
      "name": "INVALID_ROLE_OR_SCHEDULE",
      "type": "error"
    },
    {
      "inputs": [
        {
          "internalType": "address",
          "name": "owner",
          "type": "address"
        }
      ],
      "name": "OwnableInvalidOwner",
      "type": "error"
    },
    {
      "inputs": [
        {
          "internalType": "address",
          "name": "account",
          "type": "address"
        }
      ],
      "name": "OwnableUnauthorizedAccount",
      "type": "error"
    },
    {
      "inputs": [
        {
          "internalType": "uint256",
          "name": "",
          "type": "uint256"
        }
      ],
      "name": "RELEASE_TIME_MUST_BE_IN_FUTURE",
      "type": "error"
    },
    {
      "inputs": [],
      "name": "SCHEDULED_ALREADY",
      "type": "error"
    },
    {
      "inputs": [],
      "name": "STAKEHOLDER_ALREADY_REGISTERED",
      "type": "error"
    },
    {
      "inputs": [],
      "name": "TOKEN_NOT_VESTED",
      "type": "error"
    },
    {
      "inputs": [],
      "name": "TOKEN_TRANSFER_FAILED",
      "type": "error"
    },
    {
      "inputs": [],
      "name": "TOKEN_WITHDRAWN",
      "type": "error"
    },
    {
      "inputs": [
        {
          "internalType": "address",
          "name": "",
          "type": "address"
        }
      ],
      "name": "UNAUTHORIZED_ADDRESS",
      "type": "error"
    },
    {
      "anonymous": false,
      "inputs": [
        {
          "indexed": true,
          "internalType": "address",
          "name": "previousOwner",
          "type": "address"
        },
        {
          "indexed": true,
          "internalType": "address",
          "name": "newOwner",
          "type": "address"
        }
      ],
      "name": "OwnershipTransferred",
      "type": "event"
    },
    {
      "anonymous": false,
      "inputs": [
        {
          "indexed": true,
          "internalType": "address",
          "name": "tokenAddress",
          "type": "address"
        },
        {
          "indexed": true,
          "internalType": "address",
          "name": "vestingAddress",
          "type": "address"
        },
        {
          "indexed": false,
          "internalType": "address",
          "name": "owner",
          "type": "address"
        }
      ],
      "name": "VestingInstanceCreated",
      "type": "event"
    },
    {
      "inputs": [
        {
          "internalType": "uint256",
          "name": "_index",
          "type": "uint256"
        },
        {
          "internalType": "address",
          "name": "_stakeholder",
          "type": "address"
        }
      ],
      "name": "balanceOf",
      "outputs": [
        {
          "internalType": "uint256",
          "name": "",
          "type": "uint256"
        }
      ],
      "stateMutability": "view",
      "type": "function"
    },
    {
      "inputs": [
        {
          "internalType": "string[]",
          "name": "roles",
          "type": "string[]"
        },
        {
          "internalType": "uint256[]",
          "name": "amounts",
          "type": "uint256[]"
        },
        {
          "internalType": "uint256[]",
          "name": "vestingPeriods",
          "type": "uint256[]"
        },
        {
          "internalType": "string",
          "name": "tokenName",
          "type": "string"
        },
        {
          "internalType": "string",
          "name": "tokenSymbol",
          "type": "string"
        }
      ],
      "name": "createVestingInstance",
      "outputs": [],
      "stateMutability": "nonpayable",
      "type": "function"
    },
    {
      "inputs": [],
      "name": "owner",
      "outputs": [
        {
          "internalType": "address",
          "name": "",
          "type": "address"
        }
      ],
      "stateMutability": "view",
      "type": "function"
    },
    {
      "inputs": [],
      "name": "renounceOwnership",
      "outputs": [],
      "stateMutability": "nonpayable",
      "type": "function"
    },
    {
      "inputs": [
        {
          "internalType": "uint256",
          "name": "_index",
          "type": "uint256"
        },
        {
          "internalType": "address",
          "name": "_stakeholder",
          "type": "address"
        }
      ],
      "name": "stakeholderClaimBenefit",
      "outputs": [],
      "stateMutability": "nonpayable",
      "type": "function"
    },
    {
      "inputs": [
        {
          "internalType": "uint256",
          "name": "",
          "type": "uint256"
        }
      ],
      "name": "tokenContracts",
      "outputs": [
        {
          "internalType": "address",
          "name": "",
          "type": "address"
        }
      ],
      "stateMutability": "view",
      "type": "function"
    },
    {
      "inputs": [
        {
          "internalType": "address",
          "name": "newOwner",
          "type": "address"
        }
      ],
      "name": "transferOwnership",
      "outputs": [],
      "stateMutability": "nonpayable",
      "type": "function"
    },
    {
      "inputs": [
        {
          "internalType": "uint256",
          "name": "",
          "type": "uint256"
        }
      ],
      "name": "vestingContracts",
      "outputs": [
        {
          "internalType": "address",
          "name": "",
          "type": "address"
        }
      ],
      "stateMutability": "view",
      "type": "function"
    },
    {
      "inputs": [
        {
          "internalType": "uint256",
          "name": "_index",
          "type": "uint256"
        },
        {
          "internalType": "string",
          "name": "_role",
          "type": "string"
        },
        {
          "internalType": "address",
          "name": "_stakeholderAddress",
          "type": "address"
        }
      ],
      "name": "whitelistAddress",
      "outputs": [],
      "stateMutability": "nonpayable",
      "type": "function"
    }
  ],
  "bytecode": "0x60806040523480156200001157600080fd5b5033600073ffffffffffffffffffffffffffffffffffffffff168173ffffffffffffffffffffffffffffffffffffffff1603620000885760006040517f1e4fbdf70000000000000000000000000000000000000000000000000000000081526004016200007f9190620001a9565b60405180910390fd5b6200009981620000a060201b60201c565b50620001c6565b60008060009054906101000a900473ffffffffffffffffffffffffffffffffffffffff169050816000806101000a81548173ffffffffffffffffffffffffffffffffffffffff021916908373ffffffffffffffffffffffffffffffffffffffff1602179055508173ffffffffffffffffffffffffffffffffffffffff168173ffffffffffffffffffffffffffffffffffffffff167f8be0079c531659141344cd1fd0a4f28419497f9722a3daafe3b4186f6b6457e060405160405180910390a35050565b600073ffffffffffffffffffffffffffffffffffffffff82169050919050565b6000620001918262000164565b9050919050565b620001a38162000184565b82525050565b6000602082019050620001c0600083018462000198565b92915050565b614dcb80620001d66000396000f3fe60806040523480156200001157600080fd5b5060043610620000a05760003560e01c8063715018a6116200006f578063715018a614620001675780638da5cb5b1462000173578063f2fde38b1462000195578063f36d404714620001b5578063fcd7ac0f14620001d557620000a0565b80631d9fb30914620000a55780633656eec214620000db578063470194a2146200011157806358281bf31462000131575b600080fd5b620000c36004803603810190620000bd919062000bf7565b620001f5565b604051620000d2919062000c6e565b60405180910390f35b620000f96004803603810190620000f3919062000cbc565b62000235565b60405162000108919062000d14565b60405180910390f35b6200012f600480360381019062000129919062000e93565b62000304565b005b6200014f600480360381019062000149919062000bf7565b620003c1565b6040516200015e919062000c6e565b60405180910390f35b6200017162000401565b005b6200017d62000419565b6040516200018c919062000c6e565b60405180910390f35b620001b36004803603810190620001ad919062000f0e565b62000442565b005b620001d36004803603810190620001cd919062000cbc565b620004cf565b005b620001f36004803603810190620001ed919062001112565b62000589565b005b600281815481106200020657600080fd5b906000526020600020016000915054906101000a900473ffffffffffffffffffffffffffffffffffffffff1681565b600080600184815481106200024f576200024e62001235565b5b9060005260206000200160009054906101000a900473ffffffffffffffffffffffffffffffffffffffff1690508073ffffffffffffffffffffffffffffffffffffffff166370a08231846040518263ffffffff1660e01b8152600401620002b7919062000c6e565b602060405180830381865afa158015620002d5573d6000803e3d6000fd5b505050506040513d601f19601f82011682018060405250810190620002fb91906200127b565b91505092915050565b6000600184815481106200031d576200031c62001235565b5b9060005260206000200160009054906101000a900473ffffffffffffffffffffffffffffffffffffffff1690508073ffffffffffffffffffffffffffffffffffffffff16631c099e4684846040518363ffffffff1660e01b81526004016200038792919062001336565b600060405180830381600087803b158015620003a257600080fd5b505af1158015620003b7573d6000803e3d6000fd5b5050505050505050565b60018181548110620003d257600080fd5b906000526020600020016000915054906101000a900473ffffffffffffffffffffffffffffffffffffffff1681565b6200040b62000a0f565b62000417600062000a9f565b565b60008060009054906101000a900473ffffffffffffffffffffffffffffffffffffffff16905090565b6200044c62000a0f565b600073ffffffffffffffffffffffffffffffffffffffff168173ffffffffffffffffffffffffffffffffffffffff1603620004c15760006040517f1e4fbdf7000000000000000000000000000000000000000000000000000000008152600401620004b8919062000c6e565b60405180910390fd5b620004cc8162000a9f565b50565b600060018381548110620004e857620004e762001235565b5b9060005260206000200160009054906101000a900473ffffffffffffffffffffffffffffffffffffffff1690508073ffffffffffffffffffffffffffffffffffffffff16630111c240836040518263ffffffff1660e01b815260040162000550919062000c6e565b600060405180830381600087803b1580156200056b57600080fd5b505af115801562000580573d6000803e3d6000fd5b50505050505050565b6200059362000a0f565b60008551905084518114158015620005ac575083518551145b15620005e4576040517f858a19e600000000000000000000000000000000000000000000000000000000815260040160405180910390fd5b60008167ffffffffffffffff81111562000603576200060262000d4c565b5b6040519080825280602002602001820160405280156200064057816020015b6200062c62000b6b565b815260200190600190039081620006225790505b5090506000848433604051620006569062000b8c565b62000664939291906200136a565b604051809103906000f08015801562000681573d6000803e3d6000fd5b5090506002819080600181540180825580915050600190039060005260206000200160009091909190916101000a81548173ffffffffffffffffffffffffffffffffffffffff021916908373ffffffffffffffffffffffffffffffffffffffff16021790555060003382604051620006f99062000b9a565b6200070692919062001420565b604051809103906000f08015801562000723573d6000803e3d6000fd5b5090506001819080600181540180825580915050600190039060005260206000200160009091909190916101000a81548173ffffffffffffffffffffffffffffffffffffffff021916908373ffffffffffffffffffffffffffffffffffffffff1602179055508173ffffffffffffffffffffffffffffffffffffffff166340c10f1982620f42406040518363ffffffff1660e01b8152600401620007c992919062001490565b600060405180830381600087803b158015620007e457600080fd5b505af1158015620007f9573d6000803e3d6000fd5b50505050600042905060005b8a518110156200099b5760405180606001604052808c838151811062000830576200082f62001235565b5b602002602001015181526020018b838151811062000853576200085262001235565b5b602002602001015181526020018a838151811062000876576200087562001235565b5b6020026020010151846200088b9190620014ec565b815250858281518110620008a457620008a362001235565b5b60200260200101819052508273ffffffffffffffffffffffffffffffffffffffff166344cc73da868381518110620008e157620008e062001235565b5b60200260200101516000015187848151811062000903576200090262001235565b5b60200260200101516020015188858151811062000925576200092462001235565b5b6020026020010151604001516040518463ffffffff1660e01b8152600401620009519392919062001527565b600060405180830381600087803b1580156200096c57600080fd5b505af115801562000981573d6000803e3d6000fd5b50505050808062000992906200156b565b91505062000805565b508173ffffffffffffffffffffffffffffffffffffffff168373ffffffffffffffffffffffffffffffffffffffff167f92523185d371aa7775c602b3b576c440f70f1b1848330f32e5ae984f160f02f433604051620009fb919062000c6e565b60405180910390a350505050505050505050565b62000a1962000b63565b73ffffffffffffffffffffffffffffffffffffffff1662000a3962000419565b73ffffffffffffffffffffffffffffffffffffffff161462000a9d5762000a5f62000b63565b6040517f118cdaa700000000000000000000000000000000000000000000000000000000815260040162000a94919062000c6e565b60405180910390fd5b565b60008060009054906101000a900473ffffffffffffffffffffffffffffffffffffffff169050816000806101000a81548173ffffffffffffffffffffffffffffffffffffffff021916908373ffffffffffffffffffffffffffffffffffffffff1602179055508173ffffffffffffffffffffffffffffffffffffffff168173ffffffffffffffffffffffffffffffffffffffff167f8be0079c531659141344cd1fd0a4f28419497f9722a3daafe3b4186f6b6457e060405160405180910390a35050565b600033905090565b60405180606001604052806060815260200160008152602001600081525090565b61198080620015b983390190565b611e5d8062002f3983390190565b6000604051905090565b600080fd5b600080fd5b6000819050919050565b62000bd18162000bbc565b811462000bdd57600080fd5b50565b60008135905062000bf18162000bc6565b92915050565b60006020828403121562000c105762000c0f62000bb2565b5b600062000c208482850162000be0565b91505092915050565b600073ffffffffffffffffffffffffffffffffffffffff82169050919050565b600062000c568262000c29565b9050919050565b62000c688162000c49565b82525050565b600060208201905062000c85600083018462000c5d565b92915050565b62000c968162000c49565b811462000ca257600080fd5b50565b60008135905062000cb68162000c8b565b92915050565b6000806040838503121562000cd65762000cd562000bb2565b5b600062000ce68582860162000be0565b925050602062000cf98582860162000ca5565b9150509250929050565b62000d0e8162000bbc565b82525050565b600060208201905062000d2b600083018462000d03565b92915050565b600080fd5b600080fd5b6000601f19601f8301169050919050565b7f4e487b7100000000000000000000000000000000000000000000000000000000600052604160045260246000fd5b62000d868262000d3b565b810181811067ffffffffffffffff8211171562000da85762000da762000d4c565b5b80604052505050565b600062000dbd62000ba8565b905062000dcb828262000d7b565b919050565b600067ffffffffffffffff82111562000dee5762000ded62000d4c565b5b62000df98262000d3b565b9050602081019050919050565b82818337600083830152505050565b600062000e2c62000e268462000dd0565b62000db1565b90508281526020810184848401111562000e4b5762000e4a62000d36565b5b62000e5884828562000e06565b509392505050565b600082601f83011262000e785762000e7762000d31565b5b813562000e8a84826020860162000e15565b91505092915050565b60008060006060848603121562000eaf5762000eae62000bb2565b5b600062000ebf8682870162000be0565b935050602084013567ffffffffffffffff81111562000ee35762000ee262000bb7565b5b62000ef18682870162000e60565b925050604062000f048682870162000ca5565b9150509250925092565b60006020828403121562000f275762000f2662000bb2565b5b600062000f378482850162000ca5565b91505092915050565b600067ffffffffffffffff82111562000f5e5762000f5d62000d4c565b5b602082029050602081019050919050565b600080fd5b600062000f8b62000f858462000f40565b62000db1565b9050808382526020820190506020840283018581111562000fb15762000fb062000f6f565b5b835b8181101562000fff57803567ffffffffffffffff81111562000fda5762000fd962000d31565b5b80860162000fe9898262000e60565b8552602085019450505060208101905062000fb3565b5050509392505050565b600082601f83011262001021576200102062000d31565b5b81356200103384826020860162000f74565b91505092915050565b600067ffffffffffffffff8211156200105a576200105962000d4c565b5b602082029050602081019050919050565b6000620010826200107c846200103c565b62000db1565b90508083825260208201905060208402830185811115620010a857620010a762000f6f565b5b835b81811015620010d55780620010c0888262000be0565b845260208401935050602081019050620010aa565b5050509392505050565b600082601f830112620010f757620010f662000d31565b5b8135620011098482602086016200106b565b91505092915050565b600080600080600060a0868803121562001131576200113062000bb2565b5b600086013567ffffffffffffffff81111562001152576200115162000bb7565b5b620011608882890162001009565b955050602086013567ffffffffffffffff81111562001184576200118362000bb7565b5b6200119288828901620010df565b945050604086013567ffffffffffffffff811115620011b657620011b562000bb7565b5b620011c488828901620010df565b935050606086013567ffffffffffffffff811115620011e857620011e762000bb7565b5b620011f68882890162000e60565b925050608086013567ffffffffffffffff8111156200121a576200121962000bb7565b5b620012288882890162000e60565b9150509295509295909350565b7f4e487b7100000000000000000000000000000000000000000000000000000000600052603260045260246000fd5b600081519050620012758162000bc6565b92915050565b60006020828403121562001294576200129362000bb2565b5b6000620012a48482850162001264565b91505092915050565b600081519050919050565b600082825260208201905092915050565b60005b83811015620012e9578082015181840152602081019050620012cc565b60008484015250505050565b60006200130282620012ad565b6200130e8185620012b8565b935062001320818560208601620012c9565b6200132b8162000d3b565b840191505092915050565b60006040820190508181036000830152620013528185620012f5565b905062001363602083018462000c5d565b9392505050565b60006060820190508181036000830152620013868186620012f5565b905081810360208301526200139c8185620012f5565b9050620013ad604083018462000c5d565b949350505050565b6000819050919050565b6000620013e0620013da620013d48462000c29565b620013b5565b62000c29565b9050919050565b6000620013f482620013bf565b9050919050565b60006200140882620013e7565b9050919050565b6200141a81620013fb565b82525050565b600060408201905062001437600083018562000c5d565b6200144660208301846200140f565b9392505050565b6000819050919050565b600062001478620014726200146c846200144d565b620013b5565b62000bbc565b9050919050565b6200148a8162001457565b82525050565b6000604082019050620014a7600083018562000c5d565b620014b660208301846200147f565b9392505050565b7f4e487b7100000000000000000000000000000000000000000000000000000000600052601160045260246000fd5b6000620014f98262000bbc565b9150620015068362000bbc565b9250828201905080821115620015215762001520620014bd565b5b92915050565b60006060820190508181036000830152620015438186620012f5565b905062001554602083018562000d03565b62001563604083018462000d03565b949350505050565b6000620015788262000bbc565b91507fffffffffffffffffffffffffffffffffffffffffffffffffffffffffffffffff8203620015ad57620015ac620014bd565b5b60018201905091905056fe60806040523480156200001157600080fd5b5060405162001980380380620019808339818101604052810190620000379190620003ae565b80838381600390816200004b919062000693565b5080600490816200005d919062000693565b505050600073ffffffffffffffffffffffffffffffffffffffff168173ffffffffffffffffffffffffffffffffffffffff1603620000d55760006040517f1e4fbdf7000000000000000000000000000000000000000000000000000000008152600401620000cc91906200078b565b60405180910390fd5b620000e681620000f060201b60201c565b50505050620007a8565b6000600560009054906101000a900473ffffffffffffffffffffffffffffffffffffffff16905081600560006101000a81548173ffffffffffffffffffffffffffffffffffffffff021916908373ffffffffffffffffffffffffffffffffffffffff1602179055508173ffffffffffffffffffffffffffffffffffffffff168173ffffffffffffffffffffffffffffffffffffffff167f8be0079c531659141344cd1fd0a4f28419497f9722a3daafe3b4186f6b6457e060405160405180910390a35050565b6000604051905090565b600080fd5b600080fd5b600080fd5b600080fd5b6000601f19601f8301169050919050565b7f4e487b7100000000000000000000000000000000000000000000000000000000600052604160045260246000fd5b6200021f82620001d4565b810181811067ffffffffffffffff82111715620002415762000240620001e5565b5b80604052505050565b600062000256620001b6565b905062000264828262000214565b919050565b600067ffffffffffffffff821115620002875762000286620001e5565b5b6200029282620001d4565b9050602081019050919050565b60005b83811015620002bf578082015181840152602081019050620002a2565b60008484015250505050565b6000620002e2620002dc8462000269565b6200024a565b905082815260208101848484011115620003015762000300620001cf565b5b6200030e8482856200029f565b509392505050565b600082601f8301126200032e576200032d620001ca565b5b815162000340848260208601620002cb565b91505092915050565b600073ffffffffffffffffffffffffffffffffffffffff82169050919050565b6000620003768262000349565b9050919050565b620003888162000369565b81146200039457600080fd5b50565b600081519050620003a8816200037d565b92915050565b600080600060608486031215620003ca57620003c9620001c0565b5b600084015167ffffffffffffffff811115620003eb57620003ea620001c5565b5b620003f98682870162000316565b935050602084015167ffffffffffffffff8111156200041d576200041c620001c5565b5b6200042b8682870162000316565b92505060406200043e8682870162000397565b9150509250925092565b600081519050919050565b7f4e487b7100000000000000000000000000000000000000000000000000000000600052602260045260246000fd5b600060028204905060018216806200049b57607f821691505b602082108103620004b157620004b062000453565b5b50919050565b60008190508160005260206000209050919050565b60006020601f8301049050919050565b600082821b905092915050565b6000600883026200051b7fffffffffffffffffffffffffffffffffffffffffffffffffffffffffffffffff82620004dc565b620005278683620004dc565b95508019841693508086168417925050509392505050565b6000819050919050565b6000819050919050565b6000620005746200056e62000568846200053f565b62000549565b6200053f565b9050919050565b6000819050919050565b620005908362000553565b620005a86200059f826200057b565b848454620004e9565b825550505050565b600090565b620005bf620005b0565b620005cc81848462000585565b505050565b5b81811015620005f457620005e8600082620005b5565b600181019050620005d2565b5050565b601f82111562000643576200060d81620004b7565b6200061884620004cc565b8101602085101562000628578190505b620006406200063785620004cc565b830182620005d1565b50505b505050565b600082821c905092915050565b6000620006686000198460080262000648565b1980831691505092915050565b600062000683838362000655565b9150826002028217905092915050565b6200069e8262000448565b67ffffffffffffffff811115620006ba57620006b9620001e5565b5b620006c6825462000482565b620006d3828285620005f8565b600060209050601f8311600181146200070b5760008415620006f6578287015190505b62000702858262000675565b86555062000772565b601f1984166200071b86620004b7565b60005b8281101562000745578489015182556001820191506020850194506020810190506200071e565b8683101562000765578489015162000761601f89168262000655565b8355505b6001600288020188555050505b505050505050565b620007858162000369565b82525050565b6000602082019050620007a260008301846200077a565b92915050565b6111c880620007b86000396000f3fe608060405234801561001057600080fd5b50600436106100cf5760003560e01c806370a082311161008c57806395d89b411161006657806395d89b4114610202578063a9059cbb14610220578063dd62ed3e14610250578063f2fde38b14610280576100cf565b806370a08231146101aa578063715018a6146101da5780638da5cb5b146101e4576100cf565b806306fdde03146100d4578063095ea7b3146100f257806318160ddd1461012257806323b872dd14610140578063313ce5671461017057806340c10f191461018e575b600080fd5b6100dc61029c565b6040516100e99190610db0565b60405180910390f35b61010c60048036038101906101079190610e6b565b61032e565b6040516101199190610ec6565b60405180910390f35b61012a610351565b6040516101379190610ef0565b60405180910390f35b61015a60048036038101906101559190610f0b565b61035b565b6040516101679190610ec6565b60405180910390f35b610178610373565b6040516101859190610f7a565b60405180910390f35b6101a860048036038101906101a39190610e6b565b61037c565b005b6101c460048036038101906101bf9190610f95565b6103ff565b6040516101d19190610ef0565b60405180910390f35b6101e2610447565b005b6101ec61045b565b6040516101f99190610fd1565b60405180910390f35b61020a610485565b6040516102179190610db0565b60405180910390f35b61023a60048036038101906102359190610e6b565b610517565b6040516102479190610ec6565b60405180910390f35b61026a60048036038101906102659190610fec565b61053a565b6040516102779190610ef0565b60405180910390f35b61029a60048036038101906102959190610f95565b6105c1565b005b6060600380546102ab9061105b565b80601f01602080910402602001604051908101604052809291908181526020018280546102d79061105b565b80156103245780601f106102f957610100808354040283529160200191610324565b820191906000526020600020905b81548152906001019060200180831161030757829003601f168201915b5050505050905090565b600080610339610647565b905061034681858561064f565b600191505092915050565b6000600254905090565b6000610368848484610661565b600190509392505050565b60006012905090565b61038461045b565b73ffffffffffffffffffffffffffffffffffffffff163273ffffffffffffffffffffffffffffffffffffffff16146103f1576040517f08c379a00000000000000000000000000000000000000000000000000000000081526004016103e8906110d8565b60405180910390fd5b6103fb8282610755565b5050565b60008060008373ffffffffffffffffffffffffffffffffffffffff1673ffffffffffffffffffffffffffffffffffffffff168152602001908152602001600020549050919050565b61044f6107d7565b610459600061085e565b565b6000600560009054906101000a900473ffffffffffffffffffffffffffffffffffffffff16905090565b6060600480546104949061105b565b80601f01602080910402602001604051908101604052809291908181526020018280546104c09061105b565b801561050d5780601f106104e25761010080835404028352916020019161050d565b820191906000526020600020905b8154815290600101906020018083116104f057829003601f168201915b5050505050905090565b600080610522610647565b905061052f818585610661565b600191505092915050565b6000600160008473ffffffffffffffffffffffffffffffffffffffff1673ffffffffffffffffffffffffffffffffffffffff16815260200190815260200160002060008373ffffffffffffffffffffffffffffffffffffffff1673ffffffffffffffffffffffffffffffffffffffff16815260200190815260200160002054905092915050565b6105c96107d7565b600073ffffffffffffffffffffffffffffffffffffffff168173ffffffffffffffffffffffffffffffffffffffff160361063b5760006040517f1e4fbdf70000000000000000000000000000000000000000000000000000000081526004016106329190610fd1565b60405180910390fd5b6106448161085e565b50565b600033905090565b61065c8383836001610924565b505050565b600073ffffffffffffffffffffffffffffffffffffffff168373ffffffffffffffffffffffffffffffffffffffff16036106d35760006040517f96c6fd1e0000000000000000000000000000000000000000000000000000000081526004016106ca9190610fd1565b60405180910390fd5b600073ffffffffffffffffffffffffffffffffffffffff168273ffffffffffffffffffffffffffffffffffffffff16036107455760006040517fec442f0500000000000000000000000000000000000000000000000000000000815260040161073c9190610fd1565b60405180910390fd5b610750838383610afb565b505050565b600073ffffffffffffffffffffffffffffffffffffffff168273ffffffffffffffffffffffffffffffffffffffff16036107c75760006040517fec442f050000000000000000000000000000000000000000000000000000000081526004016107be9190610fd1565b60405180910390fd5b6107d360008383610afb565b5050565b6107df610647565b73ffffffffffffffffffffffffffffffffffffffff166107fd61045b565b73ffffffffffffffffffffffffffffffffffffffff161461085c57610820610647565b6040517f118cdaa70000000000000000000000000000000000000000000000000000000081526004016108539190610fd1565b60405180910390fd5b565b6000600560009054906101000a900473ffffffffffffffffffffffffffffffffffffffff16905081600560006101000a81548173ffffffffffffffffffffffffffffffffffffffff021916908373ffffffffffffffffffffffffffffffffffffffff1602179055508173ffffffffffffffffffffffffffffffffffffffff168173ffffffffffffffffffffffffffffffffffffffff167f8be0079c531659141344cd1fd0a4f28419497f9722a3daafe3b4186f6b6457e060405160405180910390a35050565b600073ffffffffffffffffffffffffffffffffffffffff168473ffffffffffffffffffffffffffffffffffffffff16036109965760006040517fe602df0500000000000000000000000000000000000000000000000000000000815260040161098d9190610fd1565b60405180910390fd5b600073ffffffffffffffffffffffffffffffffffffffff168373ffffffffffffffffffffffffffffffffffffffff1603610a085760006040517f94280d620000000000000000000000000000000000000000000000000000000081526004016109ff9190610fd1565b60405180910390fd5b81600160008673ffffffffffffffffffffffffffffffffffffffff1673ffffffffffffffffffffffffffffffffffffffff16815260200190815260200160002060008573ffffffffffffffffffffffffffffffffffffffff1673ffffffffffffffffffffffffffffffffffffffff168152602001908152602001600020819055508015610af5578273ffffffffffffffffffffffffffffffffffffffff168473ffffffffffffffffffffffffffffffffffffffff167f8c5be1e5ebec7d5bd14f71427d1e84f3dd0314c0f7b2291e5b200ac8c7c3b92584604051610aec9190610ef0565b60405180910390a35b50505050565b600073ffffffffffffffffffffffffffffffffffffffff168373ffffffffffffffffffffffffffffffffffffffff1603610b4d578060026000828254610b419190611127565b92505081905550610c20565b60008060008573ffffffffffffffffffffffffffffffffffffffff1673ffffffffffffffffffffffffffffffffffffffff16815260200190815260200160002054905081811015610bd9578381836040517fe450d38c000000000000000000000000000000000000000000000000000000008152600401610bd09392919061115b565b60405180910390fd5b8181036000808673ffffffffffffffffffffffffffffffffffffffff1673ffffffffffffffffffffffffffffffffffffffff16815260200190815260200160002081905550505b600073ffffffffffffffffffffffffffffffffffffffff168273ffffffffffffffffffffffffffffffffffffffff1603610c695780600260008282540392505081905550610cb6565b806000808473ffffffffffffffffffffffffffffffffffffffff1673ffffffffffffffffffffffffffffffffffffffff168152602001908152602001600020600082825401925050819055505b8173ffffffffffffffffffffffffffffffffffffffff168373ffffffffffffffffffffffffffffffffffffffff167fddf252ad1be2c89b69c2b068fc378daa952ba7f163c4a11628f55a4df523b3ef83604051610d139190610ef0565b60405180910390a3505050565b600081519050919050565b600082825260208201905092915050565b60005b83811015610d5a578082015181840152602081019050610d3f565b60008484015250505050565b6000601f19601f8301169050919050565b6000610d8282610d20565b610d8c8185610d2b565b9350610d9c818560208601610d3c565b610da581610d66565b840191505092915050565b60006020820190508181036000830152610dca8184610d77565b905092915050565b600080fd5b600073ffffffffffffffffffffffffffffffffffffffff82169050919050565b6000610e0282610dd7565b9050919050565b610e1281610df7565b8114610e1d57600080fd5b50565b600081359050610e2f81610e09565b92915050565b6000819050919050565b610e4881610e35565b8114610e5357600080fd5b50565b600081359050610e6581610e3f565b92915050565b60008060408385031215610e8257610e81610dd2565b5b6000610e9085828601610e20565b9250506020610ea185828601610e56565b9150509250929050565b60008115159050919050565b610ec081610eab565b82525050565b6000602082019050610edb6000830184610eb7565b92915050565b610eea81610e35565b82525050565b6000602082019050610f056000830184610ee1565b92915050565b600080600060608486031215610f2457610f23610dd2565b5b6000610f3286828701610e20565b9350506020610f4386828701610e20565b9250506040610f5486828701610e56565b9150509250925092565b600060ff82169050919050565b610f7481610f5e565b82525050565b6000602082019050610f8f6000830184610f6b565b92915050565b600060208284031215610fab57610faa610dd2565b5b6000610fb984828501610e20565b91505092915050565b610fcb81610df7565b82525050565b6000602082019050610fe66000830184610fc2565b92915050565b6000806040838503121561100357611002610dd2565b5b600061101185828601610e20565b925050602061102285828601610e20565b9150509250929050565b7f4e487b7100000000000000000000000000000000000000000000000000000000600052602260045260246000fd5b6000600282049050600182168061107357607f821691505b6020821081036110865761108561102c565b5b50919050565b7f4f6e6c79204f776e657200000000000000000000000000000000000000000000600082015250565b60006110c2600a83610d2b565b91506110cd8261108c565b602082019050919050565b600060208201905081810360008301526110f1816110b5565b9050919050565b7f4e487b7100000000000000000000000000000000000000000000000000000000600052601160045260246000fd5b600061113282610e35565b915061113d83610e35565b9250828201905080821115611155576111546110f8565b5b92915050565b60006060820190506111706000830186610fc2565b61117d6020830185610ee1565b61118a6040830184610ee1565b94935050505056fea2646970667358221220879fc01a4d3b641ddec0b7fcc26dbab392835bcc22bd24dc98c0a9d39d4e9ec664736f6c6343000814003360806040523480156200001157600080fd5b5060405162001e5d38038062001e5d83398181016040528101906200003791906200027b565b81600073ffffffffffffffffffffffffffffffffffffffff168173ffffffffffffffffffffffffffffffffffffffff1603620000ad5760006040517f1e4fbdf7000000000000000000000000000000000000000000000000000000008152600401620000a49190620002d3565b60405180910390fd5b620000be816200010860201b60201c565b5080600160006101000a81548173ffffffffffffffffffffffffffffffffffffffff021916908373ffffffffffffffffffffffffffffffffffffffff1602179055505050620002f0565b60008060009054906101000a900473ffffffffffffffffffffffffffffffffffffffff169050816000806101000a81548173ffffffffffffffffffffffffffffffffffffffff021916908373ffffffffffffffffffffffffffffffffffffffff1602179055508173ffffffffffffffffffffffffffffffffffffffff168173ffffffffffffffffffffffffffffffffffffffff167f8be0079c531659141344cd1fd0a4f28419497f9722a3daafe3b4186f6b6457e060405160405180910390a35050565b600080fd5b600073ffffffffffffffffffffffffffffffffffffffff82169050919050565b6000620001fe82620001d1565b9050919050565b6200021081620001f1565b81146200021c57600080fd5b50565b600081519050620002308162000205565b92915050565b60006200024382620001f1565b9050919050565b620002558162000236565b81146200026157600080fd5b50565b60008151905062000275816200024a565b92915050565b60008060408385031215620002955762000294620001cc565b5b6000620002a5858286016200021f565b9250506020620002b88582860162000264565b9150509250929050565b620002cd81620001f1565b82525050565b6000602082019050620002ea6000830184620002c2565b92915050565b611b5d80620003006000396000f3fe608060405234801561001057600080fd5b50600436106100935760003560e01c80637106139811610066578063710613981461011c578063715018a61461013a5780638da5cb5b14610144578063ba9b5ae614610162578063f2fde38b1461018057610093565b80630111c240146100985780631c099e46146100b457806344cc73da146100d057806370a08231146100ec575b600080fd5b6100b260048036038101906100ad919061112e565b61019c565b005b6100ce60048036038101906100c991906112a1565b610642565b005b6100ea60048036038101906100e59190611333565b610a88565b005b6101066004803603810190610101919061112e565b610c96565b60405161011391906113b1565b60405180910390f35b610124610d3b565b604051610131919061150d565b60405180910390f35b610142610e14565b005b61014c610e28565b604051610159919061153e565b60405180910390f35b61016a610e51565b60405161017791906113b1565b60405180910390f35b61019a6004803603810190610195919061112e565b610e59565b005b8073ffffffffffffffffffffffffffffffffffffffff163273ffffffffffffffffffffffffffffffffffffffff161461020a576040517f08c379a0000000000000000000000000000000000000000000000000000000008152600401610201906115b6565b60405180910390fd5b600560008273ffffffffffffffffffffffffffffffffffffffff1673ffffffffffffffffffffffffffffffffffffffff16815260200190815260200160002060009054906101000a900460ff1661029857806040517f671e3b3800000000000000000000000000000000000000000000000000000000815260040161028f919061153e565b60405180910390fd5b6000600460008373ffffffffffffffffffffffffffffffffffffffff1673ffffffffffffffffffffffffffffffffffffffff16815260200190815260200160002090508060030154421015610319576040517fe9f61c4e00000000000000000000000000000000000000000000000000000000815260040160405180910390fd5b8060040160009054906101000a900460ff1615610362576040517fca79f1bb00000000000000000000000000000000000000000000000000000000815260040160405180910390fd5b60008160020154116103af5780600201546040517fad3ee87c0000000000000000000000000000000000000000000000000000000081526004016103a691906113b1565b60405180910390fd5b6000600160009054906101000a900473ffffffffffffffffffffffffffffffffffffffff1673ffffffffffffffffffffffffffffffffffffffff1663dd62ed3e30856040518363ffffffff1660e01b815260040161040e9291906115d6565b602060405180830381865afa15801561042b573d6000803e3d6000fd5b505050506040513d601f19601f8201168201806040525081019061044f9190611614565b905060018260040160006101000a81548160ff02191690831515021790555060008260020181905550600460008473ffffffffffffffffffffffffffffffffffffffff1673ffffffffffffffffffffffffffffffffffffffff168152602001908152602001600020600080820160006101000a81549073ffffffffffffffffffffffffffffffffffffffff02191690556001820160006104ef919061105f565b600282016000905560038201600090556004820160006101000a81549060ff02191690555050600160009054906101000a900473ffffffffffffffffffffffffffffffffffffffff1673ffffffffffffffffffffffffffffffffffffffff166323b872dd3085846040518463ffffffff1660e01b815260040161057493929190611641565b6020604051808303816000875af1158015610593573d6000803e3d6000fd5b505050506040513d601f19601f820116820180604052508101906105b791906116b0565b6105ed576040517fdaa068d900000000000000000000000000000000000000000000000000000000815260040160405180910390fd5b3373ffffffffffffffffffffffffffffffffffffffff167fc5c52c2a9175470464d5ea4429889e7df2ea88630a3d32f4d0d3d2d44865621082426040516106359291906116dd565b60405180910390a2505050565b61064a610e28565b73ffffffffffffffffffffffffffffffffffffffff163273ffffffffffffffffffffffffffffffffffffffff16146106b7576040517f08c379a00000000000000000000000000000000000000000000000000000000081526004016106ae90611752565b60405180910390fd5b600073ffffffffffffffffffffffffffffffffffffffff168173ffffffffffffffffffffffffffffffffffffffff160361072857806040517f62edc7f200000000000000000000000000000000000000000000000000000000815260040161071f919061153e565b60405180910390fd5b61073182610edf565b61077257816040517f65c3d31200000000000000000000000000000000000000000000000000000000815260040161076991906117ab565b60405180910390fd5b6000600460008373ffffffffffffffffffffffffffffffffffffffff1673ffffffffffffffffffffffffffffffffffffffff168152602001908152602001600020905060006003846040516107c79190611809565b90815260200160405180910390206040518060600160405290816000820180546107f09061184f565b80601f016020809104026020016040519081016040528092919081815260200182805461081c9061184f565b80156108695780601f1061083e57610100808354040283529160200191610869565b820191906000526020600020905b81548152906001019060200180831161084c57829003601f168201915b50505050508152602001600182015481526020016002820154815250509050828260000160006101000a81548173ffffffffffffffffffffffffffffffffffffffff021916908373ffffffffffffffffffffffffffffffffffffffff160217905550838260010190816108dc9190611a2c565b5080602001518260020181905550806040015182600301819055506001600560008573ffffffffffffffffffffffffffffffffffffffff1673ffffffffffffffffffffffffffffffffffffffff16815260200190815260200160002060006101000a81548160ff021916908315150217905550600160009054906101000a900473ffffffffffffffffffffffffffffffffffffffff1673ffffffffffffffffffffffffffffffffffffffff1663095ea7b38483602001516040518363ffffffff1660e01b81526004016109b0929190611afe565b6020604051808303816000875af11580156109cf573d6000803e3d6000fd5b505050506040513d601f19601f820116820180604052508101906109f391906116b0565b610a29576040517f0876a60f00000000000000000000000000000000000000000000000000000000815260040160405180910390fd5b83604051610a379190611809565b60405180910390208373ffffffffffffffffffffffffffffffffffffffff167fcdae53e71ca61889444805bf38abdfa5358aada428cc453af1433f406b022dad60405160405180910390a350505050565b610a90610e28565b73ffffffffffffffffffffffffffffffffffffffff163273ffffffffffffffffffffffffffffffffffffffff1614610afd576040517f08c379a0000000000000000000000000000000000000000000000000000000008152600401610af490611752565b60405180910390fd5b428111610b4157806040517fd3156287000000000000000000000000000000000000000000000000000000008152600401610b3891906113b1565b60405180910390fd5b60008211610b8657816040517fa71e8e9a000000000000000000000000000000000000000000000000000000008152600401610b7d91906113b1565b60405180910390fd5b610b8f83610edf565b15610bc6576040517f049222f300000000000000000000000000000000000000000000000000000000815260040160405180910390fd5b6000600384604051610bd89190611809565b9081526020016040518091039020905083816000019081610bf99190611a2c565b50828160010181905550818160020181905550600284908060018154018082558091505060019003906000526020600020016000909190919091509081610c409190611a2c565b5083604051610c4f9190611809565b60405180910390207f0a853d5b8ee6c64e26d96de47dfc3969c4d6a6f8d467d75ada989f62a24c84298484604051610c889291906116dd565b60405180910390a250505050565b6000600160009054906101000a900473ffffffffffffffffffffffffffffffffffffffff1673ffffffffffffffffffffffffffffffffffffffff166370a08231836040518263ffffffff1660e01b8152600401610cf3919061153e565b602060405180830381865afa158015610d10573d6000803e3d6000fd5b505050506040513d601f19601f82011682018060405250810190610d349190611614565b9050919050565b60606002805480602002602001604051908101604052809291908181526020016000905b82821015610e0b578382906000526020600020018054610d7e9061184f565b80601f0160208091040260200160405190810160405280929190818152602001828054610daa9061184f565b8015610df75780601f10610dcc57610100808354040283529160200191610df7565b820191906000526020600020905b815481529060010190602001808311610dda57829003601f168201915b505050505081526020019060010190610d5f565b50505050905090565b610e1c610f0c565b610e266000610f93565b565b60008060009054906101000a900473ffffffffffffffffffffffffffffffffffffffff16905090565b600042905090565b610e61610f0c565b600073ffffffffffffffffffffffffffffffffffffffff168173ffffffffffffffffffffffffffffffffffffffff1603610ed35760006040517f1e4fbdf7000000000000000000000000000000000000000000000000000000008152600401610eca919061153e565b60405180910390fd5b610edc81610f93565b50565b600080600383604051610ef29190611809565b908152602001604051809103902060010154119050919050565b610f14611057565b73ffffffffffffffffffffffffffffffffffffffff16610f32610e28565b73ffffffffffffffffffffffffffffffffffffffff1614610f9157610f55611057565b6040517f118cdaa7000000000000000000000000000000000000000000000000000000008152600401610f88919061153e565b60405180910390fd5b565b60008060009054906101000a900473ffffffffffffffffffffffffffffffffffffffff169050816000806101000a81548173ffffffffffffffffffffffffffffffffffffffff021916908373ffffffffffffffffffffffffffffffffffffffff1602179055508173ffffffffffffffffffffffffffffffffffffffff168173ffffffffffffffffffffffffffffffffffffffff167f8be0079c531659141344cd1fd0a4f28419497f9722a3daafe3b4186f6b6457e060405160405180910390a35050565b600033905090565b50805461106b9061184f565b6000825580601f1061107d575061109c565b601f01602090049060005260206000209081019061109b919061109f565b5b50565b5b808211156110b85760008160009055506001016110a0565b5090565b6000604051905090565b600080fd5b600080fd5b600073ffffffffffffffffffffffffffffffffffffffff82169050919050565b60006110fb826110d0565b9050919050565b61110b816110f0565b811461111657600080fd5b50565b60008135905061112881611102565b92915050565b600060208284031215611144576111436110c6565b5b600061115284828501611119565b91505092915050565b600080fd5b600080fd5b6000601f19601f8301169050919050565b7f4e487b7100000000000000000000000000000000000000000000000000000000600052604160045260246000fd5b6111ae82611165565b810181811067ffffffffffffffff821117156111cd576111cc611176565b5b80604052505050565b60006111e06110bc565b90506111ec82826111a5565b919050565b600067ffffffffffffffff82111561120c5761120b611176565b5b61121582611165565b9050602081019050919050565b82818337600083830152505050565b600061124461123f846111f1565b6111d6565b9050828152602081018484840111156112605761125f611160565b5b61126b848285611222565b509392505050565b600082601f8301126112885761128761115b565b5b8135611298848260208601611231565b91505092915050565b600080604083850312156112b8576112b76110c6565b5b600083013567ffffffffffffffff8111156112d6576112d56110cb565b5b6112e285828601611273565b92505060206112f385828601611119565b9150509250929050565b6000819050919050565b611310816112fd565b811461131b57600080fd5b50565b60008135905061132d81611307565b92915050565b60008060006060848603121561134c5761134b6110c6565b5b600084013567ffffffffffffffff81111561136a576113696110cb565b5b61137686828701611273565b93505060206113878682870161131e565b92505060406113988682870161131e565b9150509250925092565b6113ab816112fd565b82525050565b60006020820190506113c660008301846113a2565b92915050565b600081519050919050565b600082825260208201905092915050565b6000819050602082019050919050565b600081519050919050565b600082825260208201905092915050565b60005b83811015611432578082015181840152602081019050611417565b60008484015250505050565b6000611449826113f8565b6114538185611403565b9350611463818560208601611414565b61146c81611165565b840191505092915050565b6000611483838361143e565b905092915050565b6000602082019050919050565b60006114a3826113cc565b6114ad81856113d7565b9350836020820285016114bf856113e8565b8060005b858110156114fb57848403895281516114dc8582611477565b94506114e78361148b565b925060208a019950506001810190506114c3565b50829750879550505050505092915050565b600060208201905081810360008301526115278184611498565b905092915050565b611538816110f0565b82525050565b6000602082019050611553600083018461152f565b92915050565b600082825260208201905092915050565b7f496e76616c6964207374616b65686f6c64657200000000000000000000000000600082015250565b60006115a0601383611559565b91506115ab8261156a565b602082019050919050565b600060208201905081810360008301526115cf81611593565b9050919050565b60006040820190506115eb600083018561152f565b6115f8602083018461152f565b9392505050565b60008151905061160e81611307565b92915050565b60006020828403121561162a576116296110c6565b5b6000611638848285016115ff565b91505092915050565b6000606082019050611656600083018661152f565b611663602083018561152f565b61167060408301846113a2565b949350505050565b60008115159050919050565b61168d81611678565b811461169857600080fd5b50565b6000815190506116aa81611684565b92915050565b6000602082840312156116c6576116c56110c6565b5b60006116d48482850161169b565b91505092915050565b60006040820190506116f260008301856113a2565b6116ff60208301846113a2565b9392505050565b7f4f6e6c79204f776e657200000000000000000000000000000000000000000000600082015250565b600061173c600a83611559565b915061174782611706565b602082019050919050565b6000602082019050818103600083015261176b8161172f565b9050919050565b600061177d826113f8565b6117878185611559565b9350611797818560208601611414565b6117a081611165565b840191505092915050565b600060208201905081810360008301526117c58184611772565b905092915050565b600081905092915050565b60006117e3826113f8565b6117ed81856117cd565b93506117fd818560208601611414565b80840191505092915050565b600061181582846117d8565b915081905092915050565b7f4e487b7100000000000000000000000000000000000000000000000000000000600052602260045260246000fd5b6000600282049050600182168061186757607f821691505b60208210810361187a57611879611820565b5b50919050565b60008190508160005260206000209050919050565b60006020601f8301049050919050565b600082821b905092915050565b6000600883026118e27fffffffffffffffffffffffffffffffffffffffffffffffffffffffffffffffff826118a5565b6118ec86836118a5565b95508019841693508086168417925050509392505050565b6000819050919050565b600061192961192461191f846112fd565b611904565b6112fd565b9050919050565b6000819050919050565b6119438361190e565b61195761194f82611930565b8484546118b2565b825550505050565b600090565b61196c61195f565b61197781848461193a565b505050565b5b8181101561199b57611990600082611964565b60018101905061197d565b5050565b601f8211156119e0576119b181611880565b6119ba84611895565b810160208510156119c9578190505b6119dd6119d585611895565b83018261197c565b50505b505050565b600082821c905092915050565b6000611a03600019846008026119e5565b1980831691505092915050565b6000611a1c83836119f2565b9150826002028217905092915050565b611a35826113f8565b67ffffffffffffffff811115611a4e57611a4d611176565b5b611a58825461184f565b611a6382828561199f565b600060209050601f831160018114611a965760008415611a84578287015190505b611a8e8582611a10565b865550611af6565b601f198416611aa486611880565b60005b82811015611acc57848901518255600182019150602085019450602081019050611aa7565b86831015611ae95784890151611ae5601f8916826119f2565b8355505b6001600288020188555050505b505050505050565b6000604082019050611b13600083018561152f565b611b2060208301846113a2565b939250505056fea26469706673582212200f64a3535976045047edefbd1f6c515e64716ac013b1162bb3b1e1a558db3ff364736f6c63430008140033a26469706673582212205019a9bcd117ee4318999cc5226f303fc5224db063964089206cd2d13771bad964736f6c63430008140033",
  "linkReferences": {},
  "deployedLinkReferences": {}
}